:03000000020059A2
:03000600020003F2
:0300030002004DAB
:20000900752241E520600512011F80F77520010522C374DA8522F063F08095F050E5752263
:200029004180E0758920758DFA759850D28EE520700512011F80F78522997520001099029C
:1700490080FB80EA75200190000912009802002C02006022222222CA
:20006000753300753700C3E53764809484500BE5372427F87600053780EC90004D120098F2
:20008000858232853735E5352423F98781D0D0D083D082D0F0D0E022C3E5336480948440E6
:2000A000047582FF22753700C3E53764809484500CE5372427F9E76004053780EB0533E5D2
:2000C000372427F87601858139E537C454F0FF243FF581C082C08375E00075F000758200BE
:2000E000758300C0E0C0F0C082C083E5377004F5D0801C7401B5370575D00880127402B5D2
:20010000370575D01080087403B5370375D018C0D0E5372423F8A68185398185378222C092
:20012000E0C0F0C082C083C0D0E5352423F8A681753700E5372427F98736E535B5370405C2
:200140003780F07401B53605853735800E7404B537057537FF8004053780D8E5352423F98E
:200160008781D0D0D083D082D0F0D0E0221533E5352427F87600753700C3E53764809484FE
:200180005021E535B537028016E5372427F98707BF010C853735E5372423F9873280040507
:1501A0003780D6E5352423F98781D0D0D083D082D0F0D0E02284
:00000001FF
