:040000000201423285
:03000B00020149A6
:0300110002000EDC
:03000E00020119D3
:20001400438920758DFA759850D28E74FFC3958BF52D852D8212014D8537E060FB20E7F825
:2000340015378536E060FB20E7F81536E52B2421F9879910990280FB75996110990280FBF7
:2000540075997410990280FB7430252DF59910990280FBE52B2421F8760075992F1099028F
:2000740080FB053605380202C7438920758DFA759850D28E74FFC3958BF52D9000141201DA
:20009400DA85822C74FFB52C02806B8538E060FB20E7F815388536E060FB20E7F815367505
:2000B4002B00C3E52B648094825018E52B2421F9872EE52E7009E52B2421F8A620800405A1
:2000D4002B80DF85209910990280FB75996910990280FB75996E10990280FB7430252BF5F6
:2000F4009910990280FB75992F10990280FB05360537052F0520C3E52F64809485500302D1
:20011400008F0202C7752041752F00752B00C3E52B64809482500BE52B2421F87600052B3C
:1901340080EC75360175370075380202007D0201902222222202030B3263
:20014D00AF82858A3D753400AD34E5343395E0FE8F037C00C3ED9BEE64808CF063F08095BD
:20016D00F05014753300C3E533648094E45004053380F3053480D1E58AC3953DF53D2285D9
:20018D003D822275890075A882D28C753100753E00753400C3E534648094845012E53424FD
:2001AD0027F87600E5342439F87600053480E59001191201DA858230853432E5322423F90B
:2001CD008781D0D0D083D082D0F0D0E022D310AF01C3C0D0C3E5316480948440067582FF3C
:2001ED00020269753400C3E53464809484500CE5342427F9E76004053480EB0531E53424E9
:20020D0027F87601858135E534C454F0FF243FF581C082C08375E00075F0007582007583D9
:20022D0000C0E0C0F0C082C083E5347004F5D0801C7401B5340575D00880127402B5340548
:20024D0075D01080087403B5340375D018C0D0E5342423F8A681853581853482D0D092AF8E
:20026D0022D310AF01C3C0D0C0E0C0F0C082C083C0D0E5322423F8A681753400E53424277A
:20028D00F98733E532B53404053480F07401B53305853432800E7404B534057534FF800484
:2002AD00053480D8E5322423F98781D0D0D083D082D0F0D0E0D0D092AF221531E5322427E1
:2002CD00F876007534FF0534C3E5346480948450F5E532B5340280EEE5342427F98707BF8B
:2002ED0001E4853432E5342423F98730E5322423F98781D0D0D083D082D0F0D0E022E532C4
:20030D002439F87601053EC3E53E64808531F063F08095F04021753400C3E5346480948417
:20032D00500BE5342439F87600053480EC753E01E5322439F87601C2AFC0E0C0F0C082C072
:20034D0083C0D0E5322423F8A681753400E5342427F98733E5342439F9873DE532B5340409
:20036D00053480E97401B53309E53D7005853432800E7404B534057534FF8004053480CD40
:15038D00E5322423F98781D0D0D083D082D0F0D0E0D2AF322272
:00000001FF
