:040000000200BA320E
:03000B000200C12F
:0300110002000EDC
:03000E0002009C51
:200014008538E060FB20E7F815388536E060FB20E7F81536C3E52E648094834003752E0091
:20003400E52E242BF8A622052E0522C374DA8522F063F08095F04008E522648094C1500355
:200054007522410536053780B7438920758DFA759850D28E8537E060FB20E7F81537853664
:20007400E060FB20E7F81536C3E52F648094834003752F00E52F242BF98799052F109902D3
:2000940080FB0536053880CC752101752241752E00752F00753601753700753803900014AB
:1100B40012010502005D0200C52222222202024532FA
:2000C50075890075A882D28C753100753400C3E53464809484500BE5342427F87600053493
:2000E50080EC90009C120105858230853432E5322423F98781D0D0D083D082D0F0D0E022F3
:20010500D310AF01C3C0D0C3E5316480948440067582FF020194753400C3E53464809484CB
:20012500500CE5342427F9E76004053480EB0531E5342427F87601858135E534C454F0FFAE
:20014500243FF581C082C08375E00075F000758200758300C0E0C0F0C082C083E534700431
:20016500F5D0801C7401B5340575D00880127402B5340575D01080087403B5340375D018D6
:20018500C0D0E5342423F8A681853581853482D0D092AF22D310AF01C3C0D0C0E0C0F0C0DC
:2001A50082C083C0D0E5322423F8A681753400E5342427F98733E532B53404053480F07487
:2001C50001B53305853432800E7404B534057534FF8004053480D8E5322423F98781D0D091
:2001E500D083D082D0F0D0E0D0D092AF22D310AF01C3C0D01531E5322427F876007534003D
:20020500C3E534648094845021E532B534028016E5342427F98707BF010C853432E5342419
:2002250023F987308004053480D6E5322423F98781D0D0D083D082D0F0D0E0D0D092AF22BC
:20024500C2AFC0E0C0F0C082C083C0D0E5322423F8A681753400E5342427F98733E532B5BA
:200265003404053480F07401B53305853432800E7404B534057534FF8004053480D8E53283
:130285002423F98781D0D0D083D082D0F0D0E0D2AF322294
:00000001FF
