:040000000200703258
:03000B0002007779
:0300110002000EDC
:03000E000200618C
:20001400E52170FCD20010AF02C2000522C374DA8522F063F08095F050037522417521011C
:20003400A20092AF80DA438920758DFA759850D28EE52160FC85229910990280FBD201101F
:20005400AF02C201752100A20192AF80E47521017522419000141200BB02003A02007B227F
:070074002222220201FB32EF
:20007B0075890075A882D28C753300753700C3E53764809484500BE5372427F876000537CF
:20009B0080EC9000611200BB858232853735E5352423F98781D0D0D083D082D0F0D0E022B8
:2000BB00D310AF01C3C0D0C3E5336480948440067582FF02014A753700C3E5376480948458
:2000DB00500CE5372427F9E76004053780EB0533E5372427F87601858139E537C454F0FFE7
:2000FB00243FF581C082C08375E00075F000758200758300C0E0C0F0C082C083E537700479
:20011B00F5D0801C7401B5370575D00880127402B5370575D01080087403B5370375D01817
:20013B00C0D0E5372423F8A681853981853782D0D092AF22D310AF01C3C0D0C0E0C0F0C01C
:20015B0082C083C0D0E5352423F8A681753700E5372427F98736E535B53704053780F074BC
:20017B0001B53605853735800E7404B537057537FF8004053780D8E5352423F98781D0D0C6
:20019B00D083D082D0F0D0E0D0D092AF22D310AF01C3C0D01533E5352427F876007537007F
:2001BB00C3E537648094845021E535B537028016E5372427F98707BF010C853735E537244F
:2001DB0023F987328004053780D6E5352423F98781D0D0D083D082D0F0D0E0D0D092AF22FF
:2001FB00C2AFC0E0C0F0C082C083C0D0E5352423F8A681753700E5372427F98736E535B5F6
:20021B003704053780F07401B53605853735800E7404B537057537FF8004053780D8E535B2
:13023B002423F98781D0D0D083D082D0F0D0E0D2AF3222DE
:00000001FF
