:0400000002010932BE
:03000B00020110DF
:0300110002000EDC
:03000E000200E508
:200014008538E060FB20E7F815388536E060FB20E7F81536C374DA8522F063F08095F04008
:2000340008E522648094C15003752241C3E52E648094834003752E00E52E242BF8A622055B
:200054002E05220536053780B78538E060FB20E7F815388536E060FB20E7F81536C374B915
:200074008521F063F08095F04008E521648094B05003752130C3E52E648094834003752E38
:2000940000E52E242BF8A621052E05210536053780B7438920758DFA759850D28E8537E0E3
:2000B40060FB20E7F815378536E060FB20E7F81536C3E52F648094834003752F00E52F2455
:2000D4002BF98799052F10990280FB0536053880CC752241752130752E00752F0075360119
:2000F40075370075380390001412015E90005D12015E0200A60201142222222202029E3202
:2001140075890075A882D28C753100753E00753400C3E534648094845012E5342427F876C2
:2001340000E5342439F87600053480E59000E512015E858230853432E5322423F98781D0F2
:20015400D0D083D082D0F0D0E022D310AF01C3C0D0C3E5316480948440067582FF0201ED9D
:20017400753400C3E53464809484500CE5342427F9E76004053480EB0531E5342427F8763A
:2001940001858135E534C454F0FF243FF581C082C08375E00075F000758200758300C0E048
:2001B400C0F0C082C083E5347004F5D0801C7401B5340575D00880127402B5340575D0100D
:2001D40080087403B5340375D018C0D0E5342423F8A681853581853482D0D092AF22D31058
:2001F400AF01C3C0D0C0E0C0F0C082C083C0D0E5322423F8A681753400E5342427F9873346
:20021400E532B53404053480F07401B53305853432800E7404B534057534FF8004053480F7
:20023400D8E5322423F98781D0D0D083D082D0F0D0E0D0D092AF22D310AF01C3C0D015318F
:20025400E5322427F87600753400C3E534648094845021E532B534028016E5342427F9874C
:2002740007BF010C853432E5342423F987308004053480D6E5322423F98781D0D0D083D067
:2002940082D0F0D0E0D0D092AF22E5322439F87601E5326005053E753900AE31E531339548
:2002B400E0FF1EBEFF011FAC3EE53E3395E0FDC3EC9EED64808FF063F08095F0401A7534A6
:2002D40000C3E53464809484500BE5342439F87600053480EC753E00C2AFC0E0C0F0C08298
:2002F400C083C0D0E5322423F8A681753400E5342427F98733E5342439F9873DE532B534A7
:2003140004053480E97401B53309E53D7005853432800E7404B534057534FF800405348062
:16033400CDE5322423F98781D0D0D083D082D0F0D0E0D2AF3222FD
:00000001FF
